:020000040800F2
:10000000F81100246D030008F1620008A9600008DF
:10001000E9620008D1050008A17A0008000000008C
:100020000000000000000000000000001167000850
:10003000E91100080000000069630008716700080A
:100040008B0300088B0300088B0300088B03000858
:100050008B0300088B0300088B0300088B03000848
:100060008B0300088B0300088B0300088B03000838
:100070008B0300088B0300088B0300088B03000828
:100080008B0300088B0300088B0300088B03000818
:10009000211200088B0300088B0300088B03000863
:1000A0008B0300088B0300088B0300088B030008F8
:1000B0008B0300088B0300088B0300088B030008E8
:1000C0008B0300088B0300088B0300088B030008D8
:1000D0008B0300088B0300088B0300088B030008C8
:1000E0008B0300088B030008000000008B0300084E
:1000F0008B0300088B0300088B0300088B030008A8
:100100008B0300088B0300088B0300088B03000897
:100110008B0300088B030008B16900088B030008FB
:100120008B0300088B0300088B0300088B03000877
:100130008B0300088B0300088B0300088B03000867
:1001400000000000000000000000000000000000AF
:100150008B0300088B0300088B0300088B03000847
:100160008B0300088B0300088B0300088B03000837
:100170008B0300088B0300088B03000800000000BD
:100180008B0300088B0300088B0300088B03000817
:100190008B0300088B0300088B0300088B03000807
:1001A0008B0300088B0300088B030008000000008D
:1001B0008B0300088B0300088B0300088B030008E7
:1001C0008B0300088B030008000000000000000003
:1001D00000000000000000008B0300080000000089
:1001E000000000000000000000000000000000000F
:1001F00000000000000000008B0300088B030008D3
:100200008B0300088B030008000000008B0300082C
:100210008B0300088B0300088B0300088B03000886
:100220008B030008000000008B03000800000000A2
:100230008B0300088B030008000000008B030008FC
:100240008B0300088B0300088B0300088B03000856
:100250008B0300088B0300088B0300088B03000846
:100260008B0300088B0300088B0300088B03000836
:100270008B0300088B0300088B03000800000000BC
:100280008B0300088B0300088B0300088B03000816
:10029000000000008B0300088B0300080000000032
:1002A000000000008B0300088B0300088B0300088C
:1002B0008B0300088B0300088B0300088B030008E6
:1002C0008B0300088B0300088B03000800F002F882
:1002D00000F03CF80AA090E8000C82448344AAF1A4
:1002E0000107DA4501D100F031F8AFF2090EBAE8A2
:1002F0000F0013F0010F18BFFB1A43F0010318475A
:10030000847C0000A47C0000103A24BF78C878C127
:10031000FAD8520724BF30C830C144BF04680C600B
:10032000704700000023002400250026103A28BF53
:1003300078C1FBD8520728BF30C148BF0B60704757
:100340001FB507F0C8FD1FBD10B510BD00F006F9C0
:100350001146FFF7F5FF07F00BFC00F024F903B49A
:10036000FFF7F2FF03BC00F02BF900000A488047BA
:100370000A4880470A480047FEE7FEE7FEE7FEE737
:10038000FEE7FEE7FEE7FEE7FEE7FEE70548064973
:10039000064A074B70470000F91100084968000839
:1003A000CD020008F8050024F8110024F80D0024FF
:1003B000F80D002453EA020C00F069802DE9F04B9F
:1003C0004FF00006002B1FBFB3FA83F503FA05F4C4
:1003D00024FA05F65E4012BF1643B2FA82F502FA1D
:1003E00005F4C5F120051EBF22FA05FC44EA0C0401
:1003F000203556EA044C4FEA144418BF641C4FF0F1
:1004000000084FF00009904271EB030C39D300292A
:1004100019BFB1FA81F701FA07F6B0FA80F700FACE
:1004200007F6C7F120071EBF20FA07FC46EA0C06B4
:100430002037B6FBF4FCA7EB0507103F07F01F0BB6
:10044000CBF120062CFA06F60CFA0BFB44BFB346A0
:100450000026202FA4BF5E464FF0000B5BEA060C7F
:1004600008BF4FF0010B19EB0B0948EB0608ABFB7B
:10047000027C06FB02CC0BFB03CCC01B71EB0C0116
:10048000C1E70B46024641464846BDE8F08B13B52E
:10049000084318BF4FF0FF300146AFF30080BDE8BE
:1004A0001C40704710B5203AC0F00B80B1E81850DE
:1004B000A0E81850B1E81850A0E81850203ABFF44E
:1004C000F5AF5FEA027C24BFB1E81850A0E81850ED
:1004D00044BF18C918C0BDE810405FEA827C24BF41
:1004E00051F8043B40F8043B08BF7047D20728BFCF
:1004F00031F8023B48BF11F8012B28BF20F8023B1E
:1005000048BF00F8012B70474FF0000200B51346BA
:1005100094469646203922BFA0E80C50A0E80C5023
:10052000B1F12001BFF4F7AF090728BFA0E80C50D4
:1005300048BF0CC05DF804EB890028BF40F8042BCD
:1005400008BF704748BF20F8022B11F0804F18BF3A
:1005500000F8012B7047704770477047754600F0F0
:100560002BF8AE4605006946534620F00700854645
:1005700018B020B5FFF70AFFBDE820404FF0000695
:100580004FF000074FF000084FF0000BAC46ACE80E
:10059000C009ACE8C009ACE8C009ACE8C00921F06A
:1005A00007018D46704710B50446AFF30080204622
:1005B000BDE81040FFF7D3BE00487047100000248C
:1005C00001491820ABBEFEE726000200704700007C
:1005D000FFE7FEE70000000010B582B0019001982F
:1005E000808F0199B1F85810401A0199C887019875
:1005F000B0F93E00012805DBFFE70198B0F93E00A5
:10060000009005E00198B0F93E0040420090FFE7FD
:10061000009801998989B0EB510F12DDFFE701982D
:10062000C38F0198B0F93E104FF0FF30B1F1FF3F9A
:10063000C8BF012001998A89013200FB1230C887A6
:10064000FFE70198B0F93E200199086C1044086456
:10065000019890ED100AB8EEC00A9FED1C1A20EE2A
:10066000010A0198818901EE101AB8EE411A90ED45
:10067000013A90ED022A21EE031A21EE021A80EED1
:10068000010A80ED0C0A019890F86400C00740B19F
:10069000FFE7019800F030FC0199002081F8640028
:1006A000FFE70199C86A0A6B4B6BD1F838C0D1F8E3
:1006B0003CE00C6CCC65C1F858E0C1F854C00B6547
:1006C000CA648864486C086602B010BD0000B44378
:1006D00080B58EB00D9004A82421FFF715FF0020EF
:1006E00001900390029005900690082107910890D0
:1006F00009900A900B900C900D980078042816D859
:10070000FFE74FF4007004900D98008A000A0D99DD
:100710000A7802A901EB420202F8020C0D98008A45
:100720000D9A127801EB420101F8010C15E040F23C
:10073000FF1004900D98008A000A0D990A7802A90A
:1007400001EB420202F80A0C0D98008A0D9A127809
:1007500001EB420101F8090CFFE740F27040C2F2E0
:10076000004004A902AA00F0A3FF0EB080BD000063
:1007700080B586B000200590FFE70598002840F07E
:10078000C280FFE7059940F27000C2F2004000EB22
:1007900001204078C007002800F09D80FFE7059900
:1007A00040F27000C2F20040039000EB012000F024
:1007B0007FF90398059900EB012000F059FC03989C
:1007C000059900EB0120C07801460491042800F24D
:1007D00080800499DFE801F0030D17212B000599B3
:1007E00040F27000C2F2004000EB012100200882BC
:1007F00070E0059940F27000C2F2004000EB012069
:1008000000F08AFB66E0059940F27000C2F20040F9
:1008100000EB012000F0BCF95CE0059940F27000AB
:10082000C2F2004000EB012000F052FC52E00598BB
:1008300040F27001C2F2004101EB0020B0F910005B
:10084000059A01EB0221B1F90E1088420BDDFFE79A
:10085000059940F27000C2F2004000EB0120B0F9AF
:100860000E0002902BE0059840F27001C2F20041A8
:1008700001EB0020B0F91000059A01EB0221B1F95B
:100880000E10494288420CDAFFE7059940F27000E9
:10089000C2F2004000EB0120B0F90E00404201908E
:1008A0000AE0059940F27000C2F2004000EB01201E
:1008B000B0F910000190FFE701980290FFE702985D
:1008C000059A40F27001C2F2004101EB0221088258
:1008D00000E0FFE709E0059940F27000C2F2004035
:1008E00000EB012100200882FFE7059940F270002B
:1008F000C2F2004000EB0120FFF7EAFEFFE7059897
:100900000130059039E706B080BD0000000000000E
:1009100070B594B04FF07E5011900020C4F21020BA
:10092000129041F6FF70ADF84C0041F29410ADF812
:100930004E00002002908DF8280042F21071ADF8B0
:1009400034108DF829000021C4F287310B91002169
:10095000CCF287310C9101218DF82A104FF4FA5214
:100960000E928DF82B104FF4FA72ADF83C2040F641
:10097000B832ADF83E208DF840008DF824108DF887
:1009800025008DF826008DF8270006900790089026
:10099000ADF81000ADF81200ADF814000390FFE7B9
:1009A0000398002875D1FFE70398411C020240F22A
:1009B0007000C2F2004001908154039900EB0122C3
:1009C00000215170039A00EB02229170039A00EB10
:1009D0000222D170039A00EB0223119ADDF848C07D
:1009E000DDF84CE0C3F80CE0C3F808C05A60039A85
:1009F00000EB02230A9ADDF82CC0DDF830E00D9CF4
:100A00000E9D0F9EDE679D675C67C3F870E0C3F8BC
:100A10006CC09A66109AC3F88020039A00EB0223F8
:100A2000099A5A66039A00EB0223069ADDF81CC065
:100A3000DDF820E0C3F88CE0C3F888C0C3F8842058
:100A4000039A00EB0223BDF81420A3F89420049A23
:100A5000C3F89020039A00EB022098309FED0E0A15
:100A6000DFED0E0A9FED0E1A07F0FAF901980399CF
:100A700000EB0120CC30B1EE060ADFED0A0A9FED53
:100A80000A1A012107F0ECF9FFE7039801300390FF
:100A900086E714B070BD00BF295C8F3D0AD7A33B29
:100AA000000000009A99993E0AD7233C00000000FC
:100AB00082B001900198B0F93E00012805DBFFE704
:100AC0000198B0F93E00009005E00198B0F93E00B1
:100AD00040420090FFE70098042829DCFFE70198D6
:100AE000B0F92C0040F6B931884221DBFFE70199CB
:100AF000B1F892000130A1F892000198B0F892008C
:100B0000B0F5FA7F13D9FFE701990020A1F8920010
:100B10000199012081F86600019890F88000C007D3
:100B200020B1FFE7019900208870FFE7FFE704E0AC
:100B300001990020A1F89200FFE70199B1F8900017
:100B40000130A1F890000198B0F89000332818D334
:100B5000FFE70199B1F894000130A1F894000198E1
:100B6000B0F8940015280BD3FFE701990020A1F8F5
:100B70009400019A012182F8651001998870FFE7BD
:100B800004E001990020A1F89400FFE702B070474B
:100B900080B58AB00990099890ED050A099890ED02
:100BA000012A90ED021A20EE020A20EE010A818944
:100BB00001EE101AB8EE411A20EE010A9FED841AD8
:100BC00080EE010A80ED290A099890F86900C007B3
:100BD00000285FD0FFE7099890ED012A90ED021AF6
:100BE00090ED1B0A20EE020A20EE010A808901EE38
:100BF000100AB8EE411A20EE010A9FED751A80EE38
:100C0000010A8DED080A099890ED013A90ED022A4B
:100C100090ED1C0A20EE030A20EE020A808902EE03
:100C2000100AB8EE422A20EE020A80EE010A8DED8B
:100C3000070A099890ED290A9DED071AB4EE410ABA
:100C4000F1EE10FA05DAFFE79DED070A8DED060AD1
:100C50001AE0099890ED290A9DED081AB4EE410AB0
:100C6000F1EE10FA05DDFFE79DED080A8DED050AAE
:100C700005E0099890ED290A8DED050AFFE79DED45
:100C8000050A8DED060AFFE79DED060A099880ED3D
:100C9000290AFFE7099890ED100AB8EEC00A0998F2
:100CA00080ED2A0A0998983007F01AF8099880ED23
:100CB000360A0998B0F9340000EE100AB8EEC00AFE
:100CC000099890ED012A90ED021A20EE020A20EE1A
:100CD000010A80ED370A099890F86A00C0070028D9
:100CE0003FD0FFE7099890ED1E1A90ED360AB8EE56
:100CF000C11AB4EE410AF1EE10FA08DDFFE70998D7
:100D000090ED1E0AB8EEC00A8DED040A23E00998A2
:100D100090ED360A806F404201EE100AB8EEC11A1B
:100D2000B4EE410AF1EE10FA0ADAFFE70998806F93
:100D3000404200EE100AB8EEC00A8DED030A05E04D
:100D4000099890ED360A8DED030AFFE79DED030A41
:100D50008DED040AFFE79DED040A099880ED360A3F
:100D6000FFE70998CC3006F0BBFFBDEEC00A10EEDD
:100D7000102A0999088A104408820998B0F91000CD
:100D80000999B1F90E10884205DDFFE70998B0F91D
:100D90000E00029017E00998B0F910000999B1F916
:100DA0000E104942884206DAFFE70998B0F90E00B2
:100DB0004042019004E00998B0F910000190FFE76B
:100DC00001980290FFE70298099908820AB080BD55
:100DD0000000B443000000002DE9F0418CB0179FE3
:100DE000169E159D149CDDF84CE0DDF848C0DDF83A
:100DF00060800B970A9609950894CDF81CE0CDF811
:100E000018C00593049203910290039868B9FFE714
:100E1000049850B9FFE70298B0F5007F05D9FFE7C5
:100E20000298B0F5027F01D9FFE75EE00298A0F5D5
:100E300000708DF807009DF80700022801D3FFE736
:100E400053E09DF8071040F27000C2F2004000EB42
:100E50000120A0F58070009018980178407840EA51
:100E600001200099888718988178C07840EA01208D
:100E70000099888618980179407940EA0120009904
:100E8000888518988079009981F844000098B0F915
:100E90002C0000EE100AB8EEC00A9FED151A80EE85
:100EA000010AB2EE041A20EE010A009880ED0E0A43
:100EB0000098B0F9340000EE100AB8EEC00A0099AC
:100EC00091ED011A91ED022A21EE021A80EE010A3B
:100ED000BDEEC00A10EE100A888600990020A1F825
:100EE00090000098FFF778FBFFE70CB0BDE8F081B9
:100EF00000401C460000000081B0009000990020D6
:100F0000086400990863009908640099C1F88C008E
:100F100001B070470000000080B586B005900598CC
:100F2000B0F9180000EE100AB8EEC00A059890ED6E
:100F3000012A90ED021A20EE020A20EE010A80ED4D
:100F4000360A0598B0F9340000EE100AB8EEC00A6F
:100F5000059890ED012A90ED021A20EE020A20EE8B
:100F6000010A80ED370A059890F86800C00700284C
:100F700045D0FFE7059890ED360AB0F9740001EE10
:100F8000100AB8EEC11AB4EE410AF1EE10FA0ADD09
:100F9000FFE70598B0F9740000EE100AB8EEC00A39
:100FA0008DED040A25E0059890ED360AB0F974003D
:100FB000404201EE100AB8EEC11AB4EE410AF1EE59
:100FC00010FA0BDAFFE70598B0F97400404200EE22
:100FD000100AB8EEC00A8DED030A05E0059890ED01
:100FE000360A8DED030AFFE79DED030A8DED040A35
:100FF000FFE79DED040A059880ED360AFFE70598A6
:10100000CC3006F06DFEBDEEC00A10EE102A059938
:10101000088A104408820598B0F910000599B1F9C2
:101020000E10884205DDFFE70598B0F90E0002902A
:1010300017E00598B0F910000599B1F90E10494272
:10104000884206DAFFE70598B0F90E0040420190A9
:1010500004E00598B0F910000190FFE701980290B4
:10106000FFE702980599088206B080BD00000000E5
:1010700080B582B00190019880780199C978884242
:1010800021D0FFE7019880780199C870019900206C
:1010900000900882019908830198006B01994861CA
:1010A0000198983006F004FF0198CC3006F000FF5C
:1010B0000098019981F86700019981F8650001990C
:1010C00081F86600FFE702B080BD0000000000006C
:1010D00080B584B003900398B0F97C1000EE101A2C
:1010E000B8EEC00A80ED360A0398B0F9340000EE7D
:1010F000100AB8EEC00A039880ED370A0398CC3086
:1011000006F0EEFDBDEEC00A10EE102A0399088A23
:10111000104408820398B0F910000399B1F97E10C9
:10112000884205DDFFE70398B0F97E00029017E0E2
:101130000398B0F910000399B1F97E104942884232
:1011400006DAFFE70398B0F97E004042019004E020
:101150000398B0F910000190FFE701980290FFE7B3
:101160000298039908820398B0F93E00012805DB34
:10117000FFE70398B0F93E00009005E00398B0F94E
:101180003E0040420090FFE70098042823DCFFE780
:101190000399D1F884000130C1F884000398D0F895
:1011A0008400652816D3FFE703990020C1F8840066
:1011B000039A012182F867100399487003989830C8
:1011C00006F076FE0398CC3006F072FE0398FFF727
:1011D00093FEFFE704E003990020C1F88400FFE7D5
:1011E00004B080BD00000000704700000000000057
:1011F00072B6FFE7FEE7000044F60C01C5F60201F7
:10120000086840F002000860FFE744F60400C5F6F5
:10121000020000688004002801D4FFE7F5E770476A
:1012200080B540F27040C2F2004000F005FD80BD84
:1012300084B002900298406B009002980068D0F849
:1012400084004FF6FC718843009940EA81000299BE
:101250000968C1F8840002980068D0F8840020F47E
:101260007F00029A1168926B40EA0240C1F8840044
:101270000298816B00980844009002980068D0F8AA
:1012800088006FF38F00009940EA81000299096895
:10129000C1F8880002980068D0F8880020F4FE00A9
:1012A000029A1168D26B40EA0240C1F888000298A5
:1012B000C16B009800EB4100009002980068D0F8E4
:1012C000A0006FF38F00009940EA8100029909683D
:1012D000C1F8A00002980068D0F8A00020F4FE0039
:1012E000029A1168126C40EA0240C1F8A00002990B
:1012F000086C496C009A00FB01200090029800687D
:10130000D0F8B0006FF38F00009940EA8100029995
:101310000968C1F8B00002980068D0F8B00020F465
:10132000FE00029A1168926C40EA0240C1F8B000D7
:101330000299886CC96C009A00FB01200090029809
:101340000068D0F8AC006FF38F00009940EA81008C
:1013500002990968C1F8AC000299086D496D009ABC
:1013600000FB0120009002980068D0F8F0006FF3B5
:101370008F00009940EA810002990968C1F8F000E5
:1013800002980068D0F8F00020F47C10029A1168EE
:10139000926D40EA0240C1F8F0000298816D009819
:1013A00000EB4100009002980068D0F8C0006FF395
:1013B0008F00009940EA810002990968C1F8C000D5
:1013C00002980068D0F8C00020F47C10029A1168DE
:1013D000D26D40EA0240C1F8C00002980068D0F81F
:1013E000C00020F07C50029A1168126E40EA026040
:1013F000C1F8C00002994A6B4AF60040C4F20000EE
:1014000000EB8200C86602998A6BC86E00EB82000E
:1014100008670299CA6B086F00EBC200486702991F
:101420000A6C4B6C486F5A4300EB82008867029944
:101430008A6CCB6C886F5A4300EB8200C8670299B4
:101440000A6D4B6DC86F5A4300EB8200C1F88000F3
:1014500002998A6DD1F8800000EBC200C1F88400C7
:101460000299CA6D8B6ED1F884005A4300EB82005A
:10147000C1F8880002990A6E8B6ED1F888005A4331
:1014800000EB8200C1F890000298D0F890004DF275
:10149000FD31C4F2000188420FD3FFE70299D1F871
:1014A0009C0040F02000C1F89C000299032081F8C4
:1014B000980001208DF80F0017E00298C06E01908F
:1014C000FFE701980299D1F89010884208D2FFE70F
:1014D000019900200860FFE7019804300190F0E7CF
:1014E000FFE700208DF80F00FFE79DF80F0004B024
:1014F000704700000000000088B007900691059238
:1015000004930698406848B9FFE706980168826826
:101510000069104340EA8140039009E006980168A1
:10152000826800691043084340F080400390FFE761
:101530000698D0F820C0C16842698369C06940EA52
:101540000C601843104340EA014002900798826EF5
:10155000D0F884000499514300EB81000190039876
:10156000019908600198043001900298019908607F
:1015700001980430019000200090FFE70098069940
:10158000CA6847F64C71C0F60001895C88420DD2EA
:10159000FFE70598009940580199086001980430C8
:1015A0000190FFE7009804300090E7E708B070472B
:1015B00085B0039002910192039890F898008DF8FD
:1015C00003009DF80300012805D0FFE79DF8030004
:1015D00002285DD1FFE7029803990968896D0842E6
:1015E00007D1FFE703980168C86D40F00100C865A6
:1015F00015E0029803990968896D084002998842AC
:1016000007D1FFE703980168C86D40F00200C86584
:1016100004E0039801680320C865FFE7FFE79DF831
:1016200009008007002809D5FFE7019A039801689F
:10163000D1F8E0001043C1F8E000FFE79DF8090091
:101640004007002809D5FFE7019A03980168D1F8FF
:10165000E4001043C1F8E400FFE7FFE702984FF60B
:10166000FF71C3F6CF7100EA010203980168486D6B
:1016700010434865029A4AF61401C4F20001086852
:1016800040EA92700860FFE700208DF813000AE03E
:101690000399D1F89C0040F00200C1F89C000120A1
:1016A0008DF81300FFE79DF8130005B070470000A8
:1016B00080B586B00490039102920398406808B9FF
:1016C000FFE700E0FFE7049890F89800022845D172
:1016D000FFE704980068D0F8C00010F07C5F0BD1E1
:1016E000FFE70499D1F89C0040F02000C1F89C006D
:1016F00001208DF817003CE004980068D0F8C40081
:10170000800200280BD5FFE70499D1F89C0040F433
:101710000070C1F89C0001208DF8170029E00498A2
:101720000068D0F8C400C0F3044001900498039905
:10173000029A019BFFF7E0FE0199012000FA01F1F6
:10174000049A1268C2F8D010019988400499C1F82F
:101750009400FFE700208DF817000AE00499D1F803
:101760009C0040F00800C1F89C0001208DF8170093
:10177000FFE79DF8170006B080BD000000000000E4
:1017800082B00190009102B070470000000000009C
:1017900087B005900491059890F898008DF80300A3
:1017A0009DF80300012805D0FFE79DF803000228FB
:1017B0006AD1FFE70498C068072801D1FFE7FFE777
:1017C0000498006878BBFFE70498C068072801D038
:1017D000FFE7FFE70498C06807280CD1FFE7049AE9
:1017E00010699169D269000440EA0220084340F080
:1017F000605003900CE004998868CB680A694969D5
:10180000800740EAC36040EA024008430390FFE7D4
:101810000598C06E0499496800EB81000190039817
:10182000019908602CE00498C068072801D0FFE700
:10183000FFE70498C168006940EA4170039004988A
:10184000C068072804D1FFE704988069029006E089
:1018500004988168406940EA81700290FFE705982A
:10186000006F0499496800EBC10001900398019949
:101870000860019804300190029801990860FFE720
:1018800000208DF81B000AE00599D1F89C0040F07B
:101890000200C1F89C0001208DF81B00FFE79DF8B5
:1018A0001B0007B07047000085B0DDF814C003903E
:1018B000029101920093039890F89800012812D1A8
:1018C000FFE702980001019940EA8100009940EA8F
:1018D00041000599084303990968C1F88000002078
:1018E0008DF813000AE00399D1F89C0040F0040041
:1018F000C1F89C0001208DF81300FFE79DF813004C
:1019000005B070470000000081B0009001B0704742
:1019100082B00190009102B070470000000000000A
:101920008AB00890079106920593002001900898CC
:1019300090F898008DF803009DF80300022840F00D
:101940006881FFE70798402857D1FFE708980068AB
:10195000D0F8A00010F4FE0F0BD1FFE70899D1F8E2
:101960009C0040F02000C1F89C0001208DF8270069
:101970005AE108980068D0F8A400400658B9FFE77B
:101980000899D1F89C0040F48070C1F89C000120B7
:101990008DF8270048E108980068D0F8A400C0F34B
:1019A0000520019008980068D0F8A40000F080712C
:1019B0000120B0EB116F16D1FFE708980068D0F84E
:1019C000A0100120B0EBD17F0CD1FFE701980130CE
:1019D00008990968D1F8A01001F4FE0100EA11404D
:1019E0000190FFE7FFE70898426C406F019951436F
:1019F00000EB81000490FFE776E00798412857D17B
:101A0000FFE708980068D0F8B00010F4FE0F0BD183
:101A1000FFE70899D1F89C0040F02000C1F89C0035
:101A200001208DF82700FFE008980068D0F8B40086
:101A3000400658B9FFE70899D1F89C0040F480703F
:101A4000C1F89C0001208DF82700EDE0089800689F
:101A5000D0F8B400C0F30520019008980068D0F8D1
:101A6000B40000F080710120B0EB116F16D1FFE7D8
:101A700008980068D0F8B0100120B0EBD17F0CD1ED
:101A8000FFE70198013008990968D1F8B01001F416
:101A9000FE0100EA11400190FFE7FFE70898C26CE1
:101AA000806F0199514300EB81000490FFE71AE039
:101AB00007980899096D88420BD3FFE70899D1F878
:101AC0009C0040F02000C1F89C0001208DF8270008
:101AD000AAE00898426DC06F0799514300EB81005E
:101AE0000490FFE7FFE7FFE70498006800F08040FC
:101AF000069948600698406838B9FFE7049800687E
:101B0000C0F38A400699086006E00498006820F057
:101B1000604006990860FFE70498006800F00050F4
:101B2000069988600498006800F0004006990861F2
:101B3000049804300490049800880699C8610498B9
:101B40000068C0F303400699C8600498006800F478
:101B50008010069948610498006800F40010069906
:101B6000886104980068C0F30660069908620498CA
:101B70000068C00F069948620498043004900498E5
:101B8000039000200290FFE702980699CA6847F682
:101B90004C71C0F60001895C88420AD2FFE70398C5
:101BA000029A805C05998854FFE702980130029000
:101BB000EAE70798402806D1FFE7019808990968E5
:101BC000C1F8A80021E00798412806D1FFE7019855
:101BD00008990968C1F8B80016E007981F2808D8C6
:101BE000FFE707990120884008990968C1F8980023
:101BF00009E0079800F01F01012088400899096852
:101C0000C1F89C00FFE7FFE7FFE700208DF8270001
:101C10000AE00899D1F89C0040F00800C1F89C0047
:101C200001208DF82700FFE79DF827000AB07047D4
:101C300081B0009001B0704780B594B013904AF61F
:101C40001000C4F200000068800712904AF61400E9
:101C5000C4F200000168129800EA81701290139893
:101C60000068006D00F47040119013980068416D99
:101C700011980840119013980068006D00F00F0053
:101C8000109013980068416D1098084010901398B8
:101C90000068006D00F0F0000F9013980068416D2F
:101CA0000F9808400F9013980068006D00F0715075
:101CB0000E9013980068416D0E9808400E9013988E
:101CC0000068006D00F060700D9013980068416D21
:101CD0000D9808400D9013980068406D039013987C
:101CE0000068006D01909DF80D00C007B8B1FFE7D6
:101CF0009DF80500C00788B1FFE7FFE7139801686A
:101D00004FF4807008654AF61001C4F2000100200B
:101D10000860FFE71398FFF78BFFFFE7FFE79DF8E9
:101D20000D0000F004010020B0EB910F28D0FFE778
:101D30009DF8050000F004010020B0EB910F1ED0CB
:101D4000FFE713980068D0F8DC000B901398006848
:101D5000D0F8E4100B9808400B90FFE71398016847
:101D60004FF4806008654AF61001C4F200010020BB
:101D70000860FFE713980B9900F04AFDFFE7FFE7C3
:101D80001298B8B1FFE7FFE712984FF6FF71C3F65C
:101D9000CF7108401399096808651298800F4AF6B8
:101DA0001001C4F200010860FFE713981299FFF7D1
:101DB000E7FCFFE71198B8B1FFE7FFE711984FF68E
:101DC000FF71C3F6CF71084013990968086511982F
:101DD000800F4AF61001C4F200010860FFE7139873
:101DE000119900F025FDFFE71098B8B1FFE7FFE774
:101DF00010984FF6FF71C3F6CF7108401399096828
:101E000008651098800F4AF61001C4F200010860BE
:101E1000FFE71398109900F067FCFFE70F98B8B13F
:101E2000FFE7FFE70F984FF6FF71C3F6CF71084049
:101E30001399096808650F98800F4AF61001C4F2DB
:101E400000010860FFE713980F9900F089FCFFE795
:101E50009DF80D0000F008010020B0EBD10F1BD061
:101E6000FFE79DF8050000F008010020B0EBD10F5E
:101E700011D0FFE7FFE7139801684FF40060086591
:101E80004AF61001C4F2000100200860FFE7139831
:101E900000F0D6FCFFE7FFE79DF80D0000F002011F
:101EA0000020B0EB510F28D0FFE79DF8050000F0AF
:101EB00002010020B0EB510F1ED0FFE7139800681D
:101EC000D0F8D8000C9013980068D0F8E0100C9867
:101ED00008400C90FFE7139801684FF40070086504
:101EE0004AF61001C4F2000100200860FFE71398D1
:101EF0000C9900F095FCFFE7FFE79DF80E0000F05D
:101F000008010020B0EBD10F1BD0FFE79DF80600C1
:101F100000F008010020B0EBD10F11D0FFE7FFE780
:101F2000139801684FF4002008654AF61001C4F2C6
:101F3000000100200860FFE7139800F0D1FBFFE7E5
:101F4000FFE79DF80E00C007B8B1FFE79DF8060057
:101F5000C00788B1FFE7FFE7139801684FF48030AE
:101F600008654AF61001C4F2000100200860FFE78E
:101F7000139800F049FCFFE7FFE79DF80E0000F022
:101F800004010020B0EB910F1BD0FFE79DF8060085
:101F900000F004010020B0EB910F11D0FFE7FFE744
:101FA000139801684FF4802008654AF61001C4F2C6
:101FB000000100200860FFE7139800F021FCFFE714
:101FC000FFE79DF80E0000F002010020B0EB510F7A
:101FD0001FD0FFE79DF8060000F002010020B0EBE3
:101FE000510F15D0FFE7FFE7139801684FF4003059
:101FF00008654AF61001C4F2000100200860FFE7FE
:102000001399D1F89C0040F08000C1F89C00FFE7D4
:10201000FFE70D98B8B1FFE7FFE70D984FF6FF71A6
:10202000C3F6CF7108401399096808650D98800FB1
:102030004AF61001C4F200010860FFE713980D99F9
:10204000FFF766FCFFE70E98D0B1FFE7FFE70E98B9
:102050004FF6FF71C3F6CF71084013990968086500
:102060000E98800F4AF61001C4F200010860FFE7E5
:102070000E9A1399D1F89C001043C1F89C00FFE719
:10208000139800684AF20001C4F20001884240F04F
:10209000B980FFE71398406880688007002800F047
:1020A000B080FFE713984068006A00F00F000A90C4
:1020B00013984068416A0A9808400A90139840684B
:1020C000006A00F03000099013984068416A09984E
:1020D0000840099013984068006A00F4C0700890A6
:1020E00013984068416A089808400890139840681F
:1020F000006A00F4FC40079013984068416A079812
:102100000840079013984068006A00F4F020069099
:1021100013984068416A06980840069013984068F2
:10212000406A029013984068006A00900A9848B18B
:10213000FFE70A9813994968086213980A9900F012
:1021400047FBFFE7099848B1FFE7099813994968E9
:1021500008621398099900F04BFBFFE79DF808000F
:1021600000F040010020B0EB911F1FD0FFE79DF869
:10217000000000F040010020B0EB911F15D0FFE7F8
:1021800013984068C06B000C059013984068C06BB2
:1021900000F03F00049013984168402008621398B3
:1021A0000599049A00F01CFBFFE7FFE7089848B187
:1021B000FFE708981399496808621398089900F096
:1021C000FFFAFFE7079860B1FFE70798139949689E
:1021D0000862079A1399D1F89C001043C1F89C003B
:1021E000FFE7069860B1FFE706981399496808620F
:1021F000069A1399D1F89C001043C1F89C00FFE7A0
:10220000FFE7FFE71398D0F89C0020B1FFE7139891
:10221000FFF77AFBFFE714B080BD0000000000006C
:1022200080B598B0169047F6F061C0F6000101A89D
:102230004C22FEF737F9169820B9FFE701208DF8F8
:102240005F00D9E1169800684AF20001C4F200016B
:10225000884206D1FFE71699086800F5807048604B
:10226000FFE716988068B0F5407F01D1FFE7FFE7F0
:102270001698006C08B1FFE7FFE71698806C08B16C
:10228000FFE7FFE71698006D08B1FFE7FFE7169834
:10229000006E08B1FFE7FFE71699C86D096E0844A4
:1022A00008B1FFE7FFE7169890F8980040B9FFE7FC
:1022B0001699002081F89900169800F0A1F9FFE71F
:1022C00016980168886920F01000886100F09CFC75
:1022D0001590FFE71698006880690007002817D559
:1022E000FFE700F091FC1599401A0B280FD3FFE788
:1022F0001699D1F89C0040F00100C1F89C00169995
:10230000032081F8980001208DF85F0074E1E1E777
:1023100016980168886940F00100886100F074FC3B
:102320001590FFE7169800688069C007B8B9FFE705
:1023300000F06AFC1599401A0B280FD3FFE7169995
:10234000D1F89C0040F00100C1F89C0016990320D0
:1023500081F8980001208DF85F004DE1E2E71698C2
:102360000168886940F0020088611698007C0128A5
:1023700007D1FFE716980168886920F0400088615E
:1023800006E016980168886940F040008861FFE720
:102390001698407C012807D1FFE7169801688869E4
:1023A00040F48040886106E016980168886920F44E
:1023B00080408861FFE71698807C012807D1FFE7FD
:1023C00016980168886920F48050886106E01698A4
:1023D0000168886940F480508861FFE716980068BA
:1023E000806920F44070169A1168926810438861E1
:1023F00016980168886920F0A40088611698016821
:10240000086920F0100008611698C068012807D1FB
:10241000FFE716980168886940F0040088612BE0A6
:102420001698C06830B3FFE71698C068022819D024
:10243000FFE716980168886940F080008861169867
:102440000168086940F0100008611698C068032808
:1024500007D1FFE716980168886940F0200088617D
:10246000FFE706E016980168886940F0200088615F
:10247000FFE700E0FFE7FFE7169A116853699069EC
:10248000D2F81CE0A0F1010C6FF0FF0000EB0E2071
:1024900040EA4C60126A013A10430022CFF6FF7204
:1024A00002EB03421043C86116988068B0F5407F84
:1024B0001CD1FFE7169A1168536A906AD2F82CE093
:1024C00001386FF0FF0C0CEB0E2C40EA0C00D2F838
:1024D00030C06FF00F0202EB0C1210430022CFF657
:1024E000FF7202EB03421043C860FFE71698006ECC
:1024F00048B1FFE716980168426ED1F8C00010435A
:10250000C1F8C000FFE71699C86D096E084480B194
:10251000FFE716980068D0F8C80020F00700169A68
:102520001168936E01AA52F823201043C1F8C80025
:10253000FFE71698006C80B1FFE716980068D0F8A6
:10254000BC0020F00700169A1168536C01AA52F8DB
:1025500023201043C1F8BC00FFE71698806C88B1B7
:10256000FFE716980068D0F8BC0020F07000169ABB
:102570001168D36C01AA52F8232040EA0210C1F876
:10258000BC00FFE71698006D88B1FFE71698006859
:10259000D0F8BC0020F4E060169A1168536D01AACF
:1025A00052F8232040EA0220C1F8BC00FFE7169849
:1025B00000684AF20001C4F20001884207D1FFE737
:1025C00016984168886820F003008860FFE7169934
:1025D0000020C1F894001699C1F89C0016990120BA
:1025E00081F898001698FEF723FE8DF853009DF8A9
:1025F00053008DF85F00FFE79DF85F0018B080BDC5
:1026000080B5B8B037900020369035903490339034
:10261000329004A8B821FDF777FF379800684AF296
:102620000041C4F20001884256D1FFE70020059026
:102630004FF4004104910221069110220792089163
:10264000052209920A91C0210B910C900D904FF038
:1026500000501F9004A800F037FF18B1FFE7FEF705
:10266000C7FDFFE7FFE744F2EC40C5F60200016852
:1026700041F480710160006800F480700390039859
:10268000FFE7FFE744F2E040C5F60200016841F0D1
:1026900002010160006800F0020002900298FFE76A
:1026A0004FF440503290022033900020009034903C
:1026B00035900920369040F20040C5F6020032A95C
:1026C00000F0C2F8009A14200190052100F0C4FB2C
:1026D000019800F0B5FBFFE738B080BD00000000B6
:1026E00081B0009001B070472DE9F04395B014908F
:1026F0001391149800684AF20041C4F20001884224
:1027000029D1FFE71498402109AA07ABFFF708F980
:1027100000BBFFE709980A990B9A0C9BDDF834C0BF
:102720000E9C0F9D109E119FDDF84880EE460DF126
:102730001C09CEF81890CEF81480CEF81070CEF8A0
:102740000C60CEF80850CEF80440CEF800C0FEF77A
:1027500043FBFFE7FFE715B0BDE8F0830000000092
:1027600082B00190009102B07047000000000000AC
:1027700082B00090009890F89800012811D1FFE7EE
:102780000099022081F8980000980168886920F07B
:102790000100886100990020C1F89C008DF80700B5
:1027A0000AE00099D1F89C0040F00400C1F89C00B8
:1027B00001208DF80700FFE79DF8070002B0704781
:1027C00082B00190009102B070470000000000004C
:1027D00082B00190009102B070470000000000003C
:1027E00083B002900191009203B070470000000096
:1027F00082B00190009102B070470000000000001C
:1028000081B0009001B0704781B0009001B0704776
:1028100082B00190009102B07047000000000000FB
:1028200082B00190009102B07047000000000000EB
:1028300082B00190009102B07047000000000000DB
:1028400081B0009001B070478FB00E900D910020C4
:102850000C908020C5F600000990FFE70D980068F5
:102860000C99C840002800F0CD81FFE70D98006862
:102870000C9A0121914008400B900B98002800F021
:10288000BD81FFE70D98406800F00300012807D0E4
:10289000FFE70D98406800F0030002282FD1FFE702
:1028A0000E9880680A900C984100032000FA01F10C
:1028B0000A9888430A900D98C0680C99490000FA5C
:1028C00001F10A9808430A900A980E9988600E98B8
:1028D00040680A900C99012000FA01F10A98884397
:1028E0000A900D984068C0F300100C9900FA01F1AD
:1028F0000A9808430A900A980E994860FFE70D98D5
:10290000406800F0030003280CD1FFE70D984068F1
:1029100000F0030003281DD1FFE70D98806801280F
:1029200018D0FFE70E98C0680A900C984100032069
:1029300000FA01F10A9888430A900D9880680C9972
:10294000490000FA01F10A9808430A900A980E9982
:10295000C860FFE70D98406800F00300022826D108
:10296000FFE70E980C996FF0030202EA5101084448
:10297000006A0A900C9800F0070081000F2000FA0E
:1029800001F10A9888430A900D9800690C9901F0AA
:102990000701890000FA01F10A9808430A900A9891
:1029A0000E990C9B02EA530211440862FFE70E984D
:1029B00000680A900C984100032000FA01F10A987F
:1029C00088430A900D98406800F003000C99490074
:1029D00000FA01F10A9808430A900A980E990860D3
:1029E0000D9880798007002800F00781FFE7FFE756
:1029F00044F2F440C5F60200016841F002010160B2
:102A0000006800F0020008900898FFE70C9820F09A
:102A1000030040F20841C5F6000140580A900C98A6
:102A200000F0030081000F2000FA01F10A988843AA
:102A30000A900E980021C5F60201884203D1FFE7F3
:102A4000002007906CE00E9840F20041C5F60201AC
:102A5000884203D1FFE7012006905EE00E9840F621
:102A60000001C5F60201884203D1FFE7022005906C
:102A700050E00E9840F60041C5F60201884203D1AD
:102A8000FFE70320049042E00E9841F20001C5F6F2
:102A90000201884203D1FFE70420039034E00E983E
:102AA00041F20041C5F60201884203D1FFE705204B
:102AB000029026E00E9841F60001C5F60201884218
:102AC00003D1FFE70620019018E00E9841F600417F
:102AD000C5F60201884203D1FFE7072000900AE013
:102AE0000E9942F20042C5F602020A20914208BF46
:102AF00009200090FFE700980190FFE701980290FD
:102B0000FFE702980390FFE703980490FFE704981B
:102B10000590FFE705980690FFE706980790FFE706
:102B200007980C9901F00301890000FA01F10A9855
:102B300008430A900A980C9921F0030140F20842D8
:102B4000C5F6000288504FF0B04000680A900B991B
:102B50000A9888430A900D988079C006002805D508
:102B6000FFE70B990A9808430A90FFE70A984FF08D
:102B7000B04108600420C5F6000000680A900B9977
:102B80000A9888430A900D9880798006002805D518
:102B9000FFE70B990A9808430A90FFE70A98042177
:102BA000C5F600010860099840680A900B990A98D8
:102BB00088430A900D9880798007002805D5FFE7A3
:102BC0000B990A9808430A90FFE70A980999486008
:102BD000099800680A900B990A9888430A900D9802
:102BE0008079C00728B1FFE70B990A9808430A903B
:102BF000FFE70A9809990860FFE7FFE70C980130A2
:102C00000C902BE60FB0704740F2F050C2F200403B
:102C1000006870470000000040F20800C2F2004067
:102C2000027840F2F051C2F2004108681044086096
:102C3000704700000000000080B582B0032000F063
:102C400023F901F0D9FE44F21842C5F602021168D8
:102C5000C1F3032347F63C71C0F60001CB5C03F0DF
:102C60001F03D84000900098126802F00F02895CA0
:102C700001F01F01C84040F20401C2F200410860A7
:102C8000009840F20001C2F2004108600F2000F0FD
:102C900013F820B1FFE701208DF8070005E000F0F0
:102CA000BBF800208DF80700FFE79DF8070002B091
:102CB00080BD00000000000080B582B0009040F2AE
:102CC0000800C2F20040007820B9FFE701208DF82B
:102CD000070030E040F20000C2F20040006840F21D
:102CE0000801C2F200410A784FF47A71B1FBF2F1A7
:102CF000B0FBF1F002F080FD20B1FFE701208DF87C
:102D0000070018E000980F280DD8FFE700994FF052
:102D1000FF30002200F0A0F8009840F20C01C2F24F
:102D20000041086003E001208DF8070003E0002067
:102D30008DF80700FFE79DF8070002B080BD000096
:102D400010B581B00090009840784EF69851CEF2C0
:102D5000000108604EF6A051CEF20001086820F094
:102D600001000860009840684EF69C52CEF20002C6
:102D70001060DDF800E09EF80C0000079EF80B20C4
:102D800040EA02609EF800209EF808309EF809C0D4
:102D90009EF80A4040EAC4409EF80D4040EA844054
:102DA0009EF80E4040EA44409EF80FE040EA0E4094
:102DB00040EA0C2040EA43001043086001B010BD17
:102DC000BFF35F8F4EF62451CEF20001086820F465
:102DD000803008604EF69451CEF200010020086069
:102DE000704700000000000081B00090009840F0A3
:102DF00001004EF69451CEF2000108604EF62451C7
:102E0000CEF20001086840F480300860BFF34F8FB5
:102E1000BFF36F8F01B0704781B0FFE744F2F44019
:102E2000C5F60200016841F002010160006800F08F
:102E3000020000900098FFE701B07047000000001A
:102E400080B582B0ADF80600BDF9060004F02CFE96
:102E500002B080BD0000000080B586B0ADF816005D
:102E60000491039204F038FE0290BDF9160001901F
:102E700002980499039A03F03FFA0146019804F07E
:102E800033FE06B080BD000080B582B0019001988D
:102E900004F04EFE02B080BD80B584B0029044F6CE
:102EA0000C00C5F60200006800F004010020B0EB41
:102EB000910F13D1FFE744F60C00C5F6020000683D
:102EC00000F007000299884204D0FFE701208DF846
:102ED0000F002EE000208DF80F002AE044F60C01D0
:102EE000C5F60201086820F00700029A1043086046
:102EF000FFF78AFE0190FFE744F60400C5F60200E2
:102F0000006800F400510020B0EB513F0DD1FFE705
:102F1000FFF77AFE0199401AB0F57A7F04D9FFE7EE
:102F200001208DF80F0004E0E6E700208DF80F0087
:102F3000FFE79DF80F0004B080BD00000000000016
:102F400080B501F005FD44F22041C5F60201096893
:102F5000C1F3021247F63C71C0F60001895C01F032
:102F60001F01C84080BD000088B0079044F228408F
:102F7000C5F60200016801F0030106910068C0F384
:102F80000530059044F22C40C5F602000068C0F3FD
:102F900000100490049844F23C41C5F6020109680F
:102FA00089B2C908484300EE100AB8EE400A8DED18
:102FB000020A0598002800F01B81FFE706980090A0
:102FC00048B1FFE70098012869D0FFE70098022880
:102FD00000F08980ABE044F20040C5F602000068D2
:102FE00000F020010020B0EB511F33D0FFE744F286
:102FF0000040C5F602000068C0F3C10149F20000BC
:10300000C0F2D030C84003909DED030AB8EE400AEC
:103010009DED051AB8EE411A80EE010A44F23840DF
:10302000C5F6020000686FF35F2001EE100AB8EEEB
:10303000411A9DED022A9FED743A82EE032A31EE89
:10304000021AB7EE002A31EE021A20EE010A8DEDC7
:10305000010A23E09DED050AB8EE401A9FED6C0AC7
:1030600080EE010A44F23840C5F6020000686FF3B2
:103070005F2001EE100AB8EE411A9DED022A9FED85
:10308000623A82EE032A31EE021AB7EE002A31EEDE
:10309000021A20EE010A8DED010AFFE76BE09DEDBB
:1030A000050AB8EE401A9FED590A80EE010A44F273
:1030B0003840C5F6020000686FF35F2001EE100A89
:1030C000B8EE411A9DED022A9FED4F3A82EE032A97
:1030D00031EE021AB7EE002A31EE021A20EE010A92
:1030E0008DED010A47E09DED050AB8EE401A9FED0F
:1030F000450A80EE010A44F23840C5F60200006835
:103100006FF35F2001EE100AB8EE411A9DED022A1E
:103110009FED3D3A82EE032A31EE021AB7EE002A05
:1031200031EE021A20EE010A8DED010A23E09DED39
:10313000050AB8EE401A9FED350A80EE010A44F206
:103140003840C5F6020000686FF35F2001EE100AF8
:10315000B8EE411A9DED022A9FED2B3A82EE032A2A
:1031600031EE021AB7EE002A31EE021A20EE010A01
:103170008DED010AFFE79DED010A44F23840C5F6E6
:103180000200016889B2490A01EE101AB8EE411A2C
:10319000B7EE002A31EE021A80EE010A0799BCEE62
:1031A000C00A81ED000A9DED010A0168C1F30641E4
:1031B00001EE101AB8EE411A31EE021A80EE010A41
:1031C0000799BCEEC00A81ED010A9DED010A006875
:1031D000C0F3066001EE100AB8EE411A31EE021A91
:1031E00080EE010A0798BCEEC00A80ED020A07E0F3
:1031F0000799002008600799486007998860FFE7F1
:1032000008B0704720BCBE4B000000460024744A42
:103210000024744C0000000088B0079044F228405D
:10322000C5F60200016801F0030106910068C0F3D1
:103230000550059044F22C40C5F602000068C0F32A
:1032400000200490049844F24441C5F60201096844
:1032500089B2C908484300EE100AB8EE400A8DED65
:10326000020A0598002800F01B81FFE706980090ED
:1032700048B1FFE70098012869D0FFE700980228CD
:1032800000F08980ABE044F20040C5F6020000681F
:1032900000F020010020B0EB511F33D0FFE744F2D3
:1032A0000040C5F602000068C0F3C10149F2000009
:1032B000C0F2D030C84003909DED030AB8EE400A3A
:1032C0009DED051AB8EE411A80EE010A44F2404025
:1032D000C5F6020000686FF35F2001EE100AB8EE39
:1032E000411A9DED022A9FED743A82EE032A31EED7
:1032F000021AB7EE002A31EE021A20EE010A8DED15
:10330000010A23E09DED050AB8EE401A9FED6C0A14
:1033100080EE010A44F24040C5F6020000686FF3F7
:103320005F2001EE100AB8EE411A9DED022A9FEDD2
:10333000623A82EE032A31EE021AB7EE002A31EE2B
:10334000021A20EE010A8DED010AFFE76BE09DED08
:10335000050AB8EE401A9FED590A80EE010A44F2C0
:103360004040C5F6020000686FF35F2001EE100ACE
:10337000B8EE411A9DED022A9FED4F3A82EE032AE4
:1033800031EE021AB7EE002A31EE021A20EE010ADF
:103390008DED010A47E09DED050AB8EE401A9FED5C
:1033A000450A80EE010A44F24040C5F6020000687A
:1033B0006FF35F2001EE100AB8EE411A9DED022A6C
:1033C0009FED3D3A82EE032A31EE021AB7EE002A53
:1033D00031EE021A20EE010A8DED010A23E09DED87
:1033E000050AB8EE401A9FED350A80EE010A44F254
:1033F0004040C5F6020000686FF35F2001EE100A3E
:10340000B8EE411A9DED022A9FED2B3A82EE032A77
:1034100031EE021AB7EE002A31EE021A20EE010A4E
:103420008DED010AFFE79DED010A44F24040C5F62B
:103430000200016889B2490A01EE101AB8EE411A79
:10344000B7EE002A31EE021A80EE010A0799BCEEAF
:10345000C00A81ED000A9DED010A0168C1F3064131
:1034600001EE101AB8EE411A31EE021A80EE010A8E
:103470000799BCEEC00A81ED010A9DED010A0068C2
:10348000C0F3066001EE100AB8EE411A31EE021ADE
:1034900080EE010A0798BCEEC00A80ED020A07E040
:1034A0000799002008600799486007998860FFE73E
:1034B00008B0704720BCBE4B000000460024744A90
:1034C0000024744C0000000080B59AB018900020D1
:1034D0008DF857008DF856001898C078000700281E
:1034E00048D5FFE71898406E149078B1FFE714981C
:1034F000B0F5801F13D0FFE71498B0F5001F16D069
:10350000FFE71498B0F5401F19D019E044F22C41A0
:10351000C5F60201086840F40030086014E018980D
:103520000830022102F024FF8DF857000CE01898B3
:103530002830022103F004F88DF8570004E003E07E
:1035400001208DF85700FFE79DF8570060B9FFE7AD
:1035500044F25041C5F60201086820F44010189A60
:10356000526E1043086004E09DF857008DF8560035
:10357000FFE7FFE718984078C007002840D0FFE732
:103580001898806D1390042820D81399DFE801F073
:10359000030C141C1D0044F22C41C5F602010868FE
:1035A00040F40030086015E018980830002102F05F
:1035B000DFFE8DF857000DE018982830002102F04A
:1035C000BFFF8DF8570005E004E003E001208DF80F
:1035D0005700FFE79DF8570060B9FFE744F25041FC
:1035E000C5F60201086820F00700189A926D104392
:1035F000086004E09DF857008DF85600FFE7FFE7EC
:10360000189840784007002856D5FFE71898D0F85A
:10361000A4001290C8B1FFE71298B0F5001F1DD0AA
:10362000FFE71298B0F5800F20D0FFE71298B0F5B1
:10363000C00F23D0FFE71298B0F5000F1FD0FFE7AF
:103640001298B0F5200F1BD01BE044F22C41C5F6B8
:103650000201086840F40030086016E0189808304D
:10366000002102F085FE8DF857000EE018982830F2
:10367000002102F065FF8DF8570006E005E004E048
:1036800003E001208DF85700FFE79DF8570068B967
:10369000FFE744F25841C5F60201086820F46000D3
:1036A000189AD2F8A4201043086004E09DF857004F
:1036B0008DF85600FFE7FFE71898407800070028CC
:1036C00056D5FFE71898D0F8A8001190C8B1FFE7C9
:1036D0001198B0F1807F1DD0FFE71198B0F1007F05
:1036E00020D0FFE71198B0F1407F23D0FFE7119879
:1036F000B0F1806F1FD0FFE71198B0F1A06F1BD021
:103700001BE044F22C41C5F60201086840F4003089
:10371000086016E018980830002102F029FE8DF8A4
:1037200057000EE018982830002102F009FF8DF8AC
:10373000570006E005E004E003E001208DF85700A3
:10374000FFE79DF8570068B9FFE744F25841C5F616
:103750000201086820F0E060189AD2F8A82010430F
:10376000086004E09DF857008DF85600FFE7FFE77A
:103770001898C078800700283ED5FFE71898C06CDD
:103780001090F0B1FFE71098102808D0FFE71098CC
:1037900020280DD0FFE71098302811D012E044F215
:1037A0002C41C5F60201086840F4003008600DE0C5
:1037B00018980830022102F0DBFD8DF8570005E073
:1037C00004E003E001208DF85700FFE79DF8570063
:1037D00060B9FFE744F24C41C5F60201086820F0E9
:1037E0003000189AD26C1043086004E09DF857002E
:1037F0008DF85600FFE7FFE718984078C0060028CC
:103800004ED5FFE71898C06D0F90A0B1FFE70F9855
:10381000B0F5805F18D0FFE70F98B0F5005F1BD0C0
:10382000FFE70F98B0F5405F1ED0FFE70F98B0F5A7
:10383000804F1AD01AE044F22C41C5F60201086804
:1038400040F40030086015E018980830002102F0BC
:103850008FFD8DF857000DE018982830002102F0F8
:103860006FFE8DF8570005E004E003E001208DF8BD
:103870005700FFE79DF8570060B9FFE744F2504159
:10388000C5F60201086820F4E040189AD26D104392
:10389000086004E09DF857008DF85600FFE7FFE749
:1038A00018984078800600284CD5FFE71898006EDD
:1038B0000E90C8B1FFE70E98B0F5803F15D0FFE736
:1038C0000E98B0F5003F18D0FFE70E98B0F5403FD6
:1038D0001BD0FFE70E98B0F5802F17D0FFE70E98AA
:1038E000B0F5A02F13D013E016E01898083001218E
:1038F00002F03EFD8DF857000EE0189828300121A7
:1039000002F01EFE8DF8570006E005E004E003E03B
:1039100001208DF85700FFE79DF8570060B9FFE7D9
:1039200044F25041C5F60201086820F4E020189ADC
:10393000126E1043086004E09DF857008DF85600A1
:10394000FFE7FFE718984078400600284ED5FFE7CC
:103950001898D0F8AC000D90C8B1FFE70D98B0F101
:10396000805F15D0FFE70D98B0F1005F18D0FFE73A
:103970000D98B0F1405F1BD0FFE70D98B0F1804F7C
:1039800017D0FFE70D98B0F1A04F13D013E016E069
:1039900018980830012102F0EBFC8DF857000EE07A
:1039A00018982830012102F0CBFD8DF8570006E071
:1039B00005E004E003E001208DF85700FFE79DF8E3
:1039C000570068B9FFE744F25841C5F6020108689C
:1039D00020F0E040189AD2F8AC201043086004E0D0
:1039E0009DF857008DF85600FFE7FFE718984078DC
:1039F000000600283BD5FFE71898C06E0C90D8B1A0
:103A0000FFE70C98B0F1805F05D0FFE70C98B0F1AC
:103A1000005F09D011E044F22C41C5F602010868AC
:103A200040F4003008600CE018980830012102F0E2
:103A30009FFC8DF8570004E003E001208DF857004B
:103A4000FFE79DF8570060B9FFE744F25041C5F623
:103A50000201086820F04050189AD26E10430860A6
:103A600004E09DF857008DF85600FFE7FFE718982F
:103A7000C078C007002837D0FFE71898806C0B90FB
:103A8000032817D80B99DFE801F014020B1344F256
:103A90002C41C5F60201086840F4003008600DE0D2
:103AA00018980830022102F063FC8DF8570005E0F9
:103AB00004E003E001208DF85700FFE79DF8570070
:103AC00060B9FFE744F24C41C5F60201086820F0F6
:103AD0000300189A926C1043086004E09DF85700A8
:103AE0008DF85600FFE7FFE7189880784006002819
:103AF00040F1B480FFE744F60001C5F60201086812
:103B000040F480700860FFF77FF81690FFE744F6F6
:103B10000000C5F602000068C00500280CD4FFE7CD
:103B2000FFF772F81699401A652804D3FFE70320BF
:103B30008DF8570000E0EAE79DF85700002840F0B4
:103B40008780FFE744F27040C5F60200006800F489
:103B500040701899D1F8B01001F44071884213D028
:103B6000FFE744F27041C5F60201086820F4407096
:103B70001790086840F480300860086820F48030AE
:103B8000086017980860FFE71898D0F8B000B0F503
:103B9000807F1FD1FFE7FFF737F81690FFE744F269
:103BA0007040C5F60200006800F002010020B0EB92
:103BB000510F0ED1FFE7FFF727F81699401A41F28F
:103BC0008931884204D3FFE703208DF8570000E0D5
:103BD000E5E7FFE79DF85700A0BBFFE7FFE7189870
:103BE000D0F8B00000F44070B0F5407F13D1FFE78B
:103BF00044F21041C5F60201086820F47C50189A7E
:103C0000D2F8B0204FF6F043C0F6FF731A4040EAF6
:103C10001210086008E044F21041C5F6020108687D
:103C200020F47C500860FFE71898D0F8B0206FF3BC
:103C30001F3244F27041C5F6020108681043086063
:103C4000FFE704E09DF857008DF85600FFE704E019
:103C50009DF857008DF85600FFE7FFE718980068B9
:103C6000C007002800F04C80FFE71898806F0A908A
:103C700028282BD80A99DFE801F0152929292929B4
:103C8000292916292929292929291E2929292929C2
:103C90002929262929292929292927292929292999
:103CA0002929280016E018980830012102F060FB4D
:103CB0008DF857000EE018982830012102F040FCE2
:103CC0008DF8570006E005E004E003E001208DF8E0
:103CD0005700FFE79DF8570060B9FFE744F25441F1
:103CE000C5F60201086820F03800189A926F104358
:103CF000086004E09DF857008DF85600FFE7FFE7E5
:103D0000189800788007002839D5FFE71898406F89
:103D10000990052819D80999DFE801F003040C146B
:103D2000151616E018980830012102F021FB8DF8D5
:103D300057000EE018982830012102F001FC8DF8A0
:103D4000570006E005E004E003E001208DF857008D
:103D5000FFE79DF8570060B9FFE744F25441C5F60C
:103D60000201086820F00700189A526F104308609B
:103D700004E09DF857008DF85600FFE7FFE718981C
:103D80000078400700283BD5FFE71898D0F890004E
:103D90000890052819D80899DFE801F003040C14ED
:103DA000151616E018980830012102F0E1FA8DF896
:103DB00057000EE018982830012102F0C1FB8DF861
:103DC000570006E005E004E003E001208DF857000D
:103DD000FFE79DF8570068B9FFE744F25841C5F680
:103DE0000201086820F00700189AD2F890201043CA
:103DF000086004E09DF857008DF85600FFE7FFE7E4
:103E000018980078800600284ED5FFE71898D0F85B
:103E10008C000790C8B1FFE70798B0F1805F15D01C
:103E2000FFE70798B0F1005F18D0FFE70798B0F1FF
:103E3000405F1BD0FFE70798B0F1804F17D0FFE736
:103E40000798B0F1A04F13D013E016E0189808308F
:103E5000002102F08DFA8DF857000EE018982830F6
:103E6000022102F06DFB8DF8570006E005E004E04A
:103E700003E001208DF85700FFE79DF8570068B96F
:103E8000FFE744F25441C5F60201086820F0E04023
:103E9000189AD2F88C201043086004E09DF857006F
:103EA0008DF85600FFE7FFE71898007840060028D5
:103EB0004ED5FFE71898D0F898000690C8B1FFE7F4
:103EC0000698B0F5806F15D0FFE70698B0F5006F43
:103ED00018D0FFE70698B0F5406F1BD0FFE70698B3
:103EE000B0F5805F17D0FFE70698B0F5A05F13D05C
:103EF00013E016E018980830002102F039FA8DF826
:103F000057000EE018982830022102F019FB8DF8B6
:103F1000570006E005E004E003E001208DF85700BB
:103F2000FFE79DF8570068B9FFE744F25841C5F62E
:103F30000201086820F4E050189AD2F89820104343
:103F4000086004E09DF857008DF85600FFE7FFE792
:103F500018980078000600284ED5FFE71898D0F88A
:103F60009C000590C8B1FFE70598B0F5005F15D03B
:103F7000FFE70598B0F5804F18D0FFE70598B0F53A
:103F8000C04F1BD0FFE70598B0F5004F17D0FFE7F3
:103F90000598B0F5204F13D013E016E018980830BC
:103FA000002102F0E5F98DF857000EE0189828304E
:103FB000022102F0C5FA8DF8570006E005E004E0A2
:103FC00003E001208DF85700FFE79DF8570068B91E
:103FD000FFE744F25841C5F60201086820F460404A
:103FE000189AD2F89C201043086004E09DF857000E
:103FF0008DF85600FFE7FFE71898007800070028C3
:1040000020D5FFE71898D0F88000B0F5805F0CD17C
:10401000FFE718982830022102F092FA20B1FFE75A
:1040200001208DF85600FFE7FFE744F25441C5F642
:104030000201086820F44050189AD2F880201043FA
:104040000860FFE718980078C006002820D5FFE731
:104050001898D0F89400B0F5807F0CD1FFE718983D
:104060002830022102F06CFA20B1FFE701208DF820
:104070005600FFE7FFE744F25841C5F60201086821
:1040800020F44070189AD2F8942010430860FFE79B
:1040900018988078000700283CD5FFE71898D0F8DA
:1040A000A000049050B1FFE70498B0F5803F0DD018
:1040B000FFE70498B0F5003F10D010E018980830E2
:1040C000002102F055F98DF857000CE018982830BF
:1040D000022102F035FA8DF8570004E003E00120D8
:1040E0008DF85700FFE79DF8570068B9FFE744F2E5
:1040F0005841C5F60201086820F44030189AD2F8F9
:10410000A0201043086004E09DF857008DF8560089
:10411000FFE7FFE718988078400700283FD5FFE7C2
:104120001898D0F884000390B0F5801F0AD0FFE7FC
:104130000398B0F5001F0ED0FFE70398B0F5401FBD
:1041400011D011E044F22C41C5F60201086840F498
:10415000003008600CE018982830012102F0F0F9D6
:104160008DF8570004E003E001208DF85700FFE7C9
:104170009DF8570068B9FFE744F25441C5F60201C3
:10418000086820F44010189AD2F884201043086080
:1041900004E09DF857008DF85600FFE7FFE71898F8
:1041A0008078C007A8B3FFE71898006D029028B187
:1041B000FFE70298B0F5803F09D010E044F22C41AF
:1041C000C5F60201086840F4003008600BE018985A
:1041D0000830022102F0CCF88DF8570003E00120EE
:1041E0008DF85700FFE79DF8570060B9FFE744F2EC
:1041F0004C41C5F60201086820F48030189A126D0F
:104200001043086004E09DF857008DF85600FFE762
:10421000FFE71898C078800600280CD5FFE71898AB
:104220002830022102F08CF920B1FFE701208DF83F
:104230005600FFE7FFE718988078800700283AD5F6
:10424000FFE71898C06F0190D0B1FFE70198B0F573
:10425000807F0AD0FFE70198B0F5007F0ED0FFE71E
:104260000198B0F5407F0AD00BE044F22C41C5F62E
:104270000201086840F40030086006E005E004E050
:1042800003E001208DF85700FFE79DF8570060B963
:10429000FFE744F25441C5F60201086820F440707B
:1042A000189AD26F1043086004E09DF857008DF80B
:1042B0005600FFE7FFE718988078C00600280CD565
:1042C000FFE744F25041C5F60201086820F00040C3
:1042D000189A126F10430860FFE7189880788006DC
:1042E00000280CD5FFE744F25041C5F602010868EA
:1042F00020F08070189A926E10430860FFE71898BB
:10430000C0784006002811D5FFE7FFE744F21041CE
:10431000C5F60201086820F4004008601898D0F83B
:10432000B420086810430860FFE7FFE71898C078DA
:10433000000600280CD5FFE744F24C41C5F6020107
:10434000086820F04050189A526D10430860FFE74B
:1043500018988078000600280DD5FFE744F25441F4
:10436000C5F60201086820F44000189AD2F88820A7
:1043700010430860FFE718980079C00790B1FFE785
:1043800018980830002101F0F3FF8DF857009DF8D0
:10439000570008B9FFE704E09DF857008DF8560074
:1043A000FFE7FFE7189800798007002812D5FFE79C
:1043B00018980830012101F0DBFF8DF857009DF8B7
:1043C000570008B9FFE704E09DF857008DF8560044
:1043D000FFE7FFE7189800794007002812D5FFE7AC
:1043E00018980830022101F0C3FF8DF857009DF89E
:1043F000570008B9FFE704E09DF857008DF8560014
:10440000FFE7FFE7189800790007002812D5FFE7BB
:1044100018982830002102F093F88DF857009DF885
:10442000570008B9FFE704E09DF857008DF85600E3
:10443000FFE7FFE718980079C006002812D5FFE7CC
:1044400018982830012102F07BF88DF857009DF86C
:10445000570008B9FFE704E09DF857008DF85600B3
:10446000FFE7FFE7189800798006002812D5FFE7DC
:1044700018982830022102F063F88DF857009DF853
:10448000570008B9FFE704E09DF857008DF8560083
:10449000FFE7FFE79DF8560020B9FFE700208DF801
:1044A000670003E001208DF86700FFE79DF86700D3
:1044B0001AB080BD0000000080B586B00490039162
:1044C000049820B9FFE701208DF817003CE203981B
:1044D00042F20001C5F20021096801F00F01884293
:1044E00016D9FFE742F20000C5F20020016821F072
:1044F0000F01039A11430160006800F00F00039957
:10450000884204D0FFE701208DF817001CE2FFE786
:10451000049800784007002819D5FFE7049800693F
:1045200044F21841C5F60201096801F070018842A1
:104530000CD9FFE744F21841C5F60201086820F0E3
:104540007000049A126910430860FFE7FFE70498BF
:1045500000780007002819D5FFE70498406944F265
:104560001C41C5F60201096801F0700188420CD9AE
:10457000FFE744F21C41C5F60201086820F0700014
:10458000049A526910430860FFE7FFE70498007837
:10459000C006002819D5FFE70498806944F21C4141
:1045A000C5F60201096801F4E06188420CD9FFE711
:1045B00044F21C41C5F60201086820F4E060049A48
:1045C000926910430860FFE7FFE7049800788006CF
:1045D000002819D5FFE70498C06944F22041C5F6C8
:1045E0000201096801F0700188420CD9FFE744F22A
:1045F0002041C5F60201086820F07000049AD269D3
:1046000010430860FFE7FFE7049800788007002860
:1046100019D5FFE70498C06844F21841C5F60201B5
:10462000096801F00F0188420CD9FFE744F21841F4
:10463000C5F60201086820F00F00049AD268104302
:104640000860FFE7FFE704980078C007002800F043
:104650008C80FFE744F21841C5F60201086820F497
:104660007060049A926810430860049840680228B9
:1046700011D1FFE744F20040C5F60200006800F4E3
:1046800000310020B0EB514F04D1FFE701208DF83D
:10469000170059E13EE004984068032811D1FFE774
:1046A00044F20040C5F60200006800F000710020EE
:1046B000B0EB516F04D1FFE701208DF8170043E103
:1046C00027E004984068012811D1FFE744F2004038
:1046D000C5F60200006800F480710020B0EB112FD5
:1046E00004D1FFE701208DF817002DE110E044F21E
:1046F0000040C5F60200006800F004010020B0EBA5
:10470000910F04D1FFE701208DF817001CE1FFE7AE
:10471000FFE7FFE744F21041C5F60201086820F008
:104720000700049A526810430860FEF76DFA019082
:10473000FFE744F21040C5F60200006800F03800C0
:1047400004994968B0EBC10F0ED0FFE7FEF75CFAA1
:104750000199401A41F28931884204D3FFE70320CE
:104760008DF81700F0E0E4E7FFE704980078800791
:10477000002819D5FFE70498C06844F21841C5F62F
:104780000201096801F00F0188420CD2FFE744F2F0
:104790001841C5F60201086820F00F00049AD2689B
:1047A00010430860FFE7FFE7039842F20001C5F2FB
:1047B0000021096801F00F01884216D2FFE742F29A
:1047C0000000C5F20020016821F00F01039A114397
:1047D0000160006800F00F000399884204D0FFE7F1
:1047E00001208DF81700AFE0FFE70498007840073C
:1047F000002819D5FFE70498006944F21841C5F66E
:104800000201096801F0700188420CD2FFE744F20E
:104810001841C5F60201086820F07000049A126978
:1048200010430860FFE7FFE70498007800070028BE
:1048300019D5FFE70498406944F21C41C5F602010E
:10484000096801F0700188420CD2FFE744F21C4174
:10485000C5F60201086820F07000049A52691043FE
:104860000860FFE7FFE704980078C006002819D524
:10487000FFE70498806944F21C41C5F6020109680B
:1048800001F4E06188420CD2FFE744F21C41C5F616
:104890000201086820F4E060049A926910430860FD
:1048A000FFE7FFE7049800788006002819D5FFE7A6
:1048B0000498C06944F22041C5F60201096801F07C
:1048C000700188420CD2FFE744F22041C5F6020194
:1048D000086820F07000049AD26910430860FFE76E
:1048E000FFE700F089F844F21842C5F602021168A9
:1048F000C1F3032347F63C71C0F60001CB5C03F023
:104900001F03D84000900098126802F00F02895CE3
:1049100001F01F01C84040F20401C2F200410860EA
:10492000009840F20001C2F20041086040F20C0021
:10493000C2F200400068FEF7BFF98DF80B009DF849
:104940000B008DF81700FFE79DF8170006B080BD3B
:1049500080B582B000F050F844F21842C5F6020269
:104960001168C1F3032347F63C71C0F60001CB5C2C
:1049700003F01F03D84001900198126802F00F0263
:10498000895C01F01F0120FA01F140F20400C2F23B
:1049900000400160019940F20002C2F20042116041
:1049A000006802B080BD000080B5FFF7D1FF44F27F
:1049B0001C41C5F602010968C1F3021247F63C71B9
:1049C000C0F60001895C01F01F01C84080BD0000F5
:1049D00080B5FFF7BDFF44F21C41C5F6020109682E
:1049E000C1F3022247F63C71C0F60001895C01F078
:1049F0001F01C84080BD00008AB044F21040C5F6D7
:104A00000200006800F0380001460191182800F209
:104A100069810199DFE811F01900660166016601FC
:104A200066016601660166013A006601660166017B
:104A30006601660166016601400066016601660165
:104A40006601660166016601460044F20040C5F653
:104A50000200006800F020010020B0EB511F0ED0D2
:104A6000FFE744F20040C5F602000068C0F3C10150
:104A700049F20000C0F2D030C840029005E049F28F
:104A80000000C0F2D0300290FFE731E140F60010A4
:104A9000C0F23D0002902BE147F64000C0F27D10CD
:104AA000029025E144F22840C5F60200016801F0B9
:104AB000030108910068C0F30510079044F22C40F0
:104AC000C5F60200006800F001000690069844F266
:104AD0003441C5F60201096889B2C908484300EEAD
:104AE000100AB8EE400A8DED040A0798002800F07D
:104AF000F580FFE70898009048B1FFE7009801288B
:104B000069D0FFE70098022800F08980ABE044F20A
:104B10000040C5F60200006800F020010020B0EB64
:104B2000511F33D0FFE744F20040C5F60200006891
:104B3000C0F3C10149F20000C0F2D030C840059076
:104B40009DED050AB8EE400A9DED071AB8EE411A30
:104B500080EE010A44F23040C5F6020000686FF3AF
:104B60005F2001EE100AB8EE411A9DED042A9FED78
:104B7000633A82EE032A31EE021AB7EE002A31EED2
:104B8000021A20EE010A8DED030A23E09DED070ACB
:104B9000B8EE401A9FED5B0A80EE010A44F2304005
:104BA000C5F6020000686FF35F2001EE100AB8EE50
:104BB000411A9DED042A9FED513A82EE032A31EE0F
:104BC000021AB7EE002A31EE021A20EE010A8DED2C
:104BD000030AFFE76BE09DED070AB8EE401A9FED70
:104BE000480A80EE010A44F23040C5F6020000682F
:104BF0006FF35F2001EE100AB8EE411A9DED042A12
:104C00009FED3E3A82EE032A31EE021AB7EE002AF9
:104C100031EE021A20EE010A8DED030A47E09DED08
:104C2000070AB8EE401A9FED340A80EE010A44F2FA
:104C30003040C5F6020000686FF35F2001EE100AF5
:104C4000B8EE411A9DED042A9FED2C3A82EE032A1C
:104C500031EE021AB7EE002A31EE021A20EE010AF6
:104C60008DED030A23E09DED070AB8EE401A9FED93
:104C7000240A80EE010A44F23040C5F602000068C2
:104C80006FF35F2001EE100AB8EE411A9DED042A81
:104C90009FED1A3A82EE032A31EE021AB7EE002A8D
:104CA00031EE021A20EE010A8DED030AFFE744F20D
:104CB0003040C5F60200006881B2012000EB5120AF
:104CC00009909DED030A9DED091AB8EE411A80EE98
:104CD000010ABCEEC00A8DED020A02E0002002903B
:104CE000FFE705E040F60010C0F23D000290FFE74C
:104CF00002980AB0704700BF20BCBE4B00000046BF
:104D00000024744A0024744C80B58CB00A900A9830
:104D100028B9FFE701208DF82F0000F001BD0A98A7
:104D20000078C007002800F0B980FFE744F2104087
:104D3000C5F60200006800F03800069044F22840F2
:104D4000C5F6020000680590069810280AD0FFE713
:104D5000069818281CD1FFE7059800F003000228E8
:104D600016D1FFE744F20040C5F60200006800F4E7
:104D700000310020B0EB514F09D0FFE70A9840689E
:104D800028B9FFE701208DF82F0000F0C9BC84E0AE
:104D9000FFE70A984068B0F5803F09D1FFE744F289
:104DA0000041C5F60201086840F48030086032E036
:104DB0000A98406868B9FFE744F20041C5F602016D
:104DC000086820F480300860086820F480200860BB
:104DD00020E00A984068B0F5A02F0DD1FFE744F21B
:104DE0000041C5F60201086840F4802008600868A8
:104DF00040F4803008600CE044F20041C5F6020146
:104E0000086820F480300860086820F4802008607A
:104E1000FFE7FFE7FFE7FFE70A984068F0B1FFE729
:104E2000FDF7F2FE0990FFE744F20040C5F60200EC
:104E3000006800F400310020B0EB514F0DD1FFE7C6
:104E4000FDF7E2FE0999401A652805D3FFE7032024
:104E50008DF82F0000F064BCE6E71DE0FDF7D4FEFE
:104E60000990FFE744F20040C5F60200006800F434
:104E700000310020B0EB514F0DD0FFE7FDF7C4FE2D
:104E80000999401A652805D3FFE703208DF82F0004
:104E900000F046BCE6E7FFE7FFE7FFE70A98007887
:104EA0008007002840F1C580FFE744F21040C5F6B6
:104EB0000200006800F03800049044F22840C5F673
:104EC000020000680390049850B1FFE70498182886
:104ED00050D1FFE79DF80C00800700284AD1FFE77A
:104EE00044F20040C5F60200006800F00401002012
:104EF000B0EB910F09D0FFE70A98C06828B9FFE727
:104F000001208DF82F0000F00BBC44F20041C5F6E3
:104F10000201086820F019000A9AD268104308605C
:104F2000FDF772FE0990FFE744F20040C5F602006B
:104F3000006800F004010020B0EB910F0CD1FFE7F6
:104F4000FDF762FE0999401A032804D3FFE7032006
:104F50008DF82F00E4E3E7E744F20441C5F60201CF
:104F6000086820F0FE400A9A126940EA0260086070
:104F7000FFE75DE00A98C068A0B3FFE744F2004194
:104F8000C5F60201086820F019000A9AD268104399
:104F90000860FDF739FE0990FFE744F20040C5F6CE
:104FA0000200006800F004010020B0EB910F0CD16A
:104FB000FFE7FDF729FE0999401A032804D3FFE70C
:104FC00003208DF82F00ABE3E7E744F20441C5F678
:104FD0000201086820F0FE400A9A126940EA026065
:104FE000086024E044F20041C5F60201086820F0A0
:104FF00001000860FDF708FE0990FFE744F2004059
:10500000C5F60200006800F004010020B0EB910F2B
:105010000CD0FFE7FDF7F8FD0999401A032804D3E7
:10502000FFE703208DF82F007AE3E7E7FFE7FFE7CC
:10503000FFE70A980078C006002840F1A080FFE74B
:1050400044F21040C5F60200006800F038000290FB
:1050500044F22840C5F60200006801900298082832
:105060000AD0FFE7029818282BD1FFE7019800F03B
:105070000300012825D1FFE744F20040C5F60200F5
:10508000006800F480710020B0EB112F09D0FFE719
:105090000A98C069802804D0FFE701208DF82F000E
:1050A0003EE3FFE744F20C41C5F60201086820F038
:1050B0007C500A9A126A40EA02600860FFE7FFE744
:1050C0005CE00A98C06998B3FFE744F20041C5F676
:1050D0000201086840F080000860FDF795FD099026
:1050E000FFE744F20040C5F60200006800F480715A
:1050F0000020B0EB112F0CD1FFE7FDF785FD0999DA
:10510000401A032804D3FFE703208DF82F0007E39C
:10511000E7E7FFE744F20C41C5F60201086820F01A
:105120007C500A9A126A40EA02600860FFE724E0B5
:1051300044F20041C5F60201086820F080000860D2
:10514000FDF762FD0990FFE744F20040C5F602005A
:10515000006800F480710020B0EB112F0CD0FFE745
:10516000FDF752FD0999401A032804D3FFE70320F5
:105170008DF82F00D4E2E7E7FFE7FFE7FFE70A98A3
:105180000078000700284FD5FFE70A98406928B348
:10519000FFE744F27441C5F60201086840F00100DF
:1051A0000860FDF731FD0990FFE744F27440C5F651
:1051B0000200006800F002010020B0EB510F0CD19A
:1051C000FFE7FDF721FD0999401A032804D3FFE703
:1051D00003208DF82F00A3E2E7E724E044F27441B6
:1051E000C5F60201086820F001000860FDF70CFD1B
:1051F0000990FFE744F27440C5F60200006800F031
:1052000002010020B0EB510F0CD0FFE7FDF7FCFCD2
:105210000999401A032804D3FFE703208DF82F00D3
:105220007EE2E7E7FFE7FFE70A98007880060028BC
:105230004FD5FFE70A98806928B3FFE744F20041A1
:10524000C5F60201086840F480500860FDF7DCFCF8
:105250000990FFE744F20040C5F60200006800F440
:1052600000510020B0EB513F0CD1FFE7FDF7CCFC23
:105270000999401A032804D3FFE703208DF82F0073
:105280004EE2E7E724E044F20041C5F60201086877
:1052900020F480500860FDF7B7FC0990FFE744F266
:1052A0000040C5F60200006800F400510020B0EB99
:1052B000513F0CD0FFE7FDF7A7FC0999401A0328DE
:1052C00004D3FFE703208DF82F0029E2E7E7FFE78B
:1052D000FFE70A9800784007002840F1A780FFE721
:1052E00044F60001C5F60201086840F480700860C9
:1052F000FDF78AFC0990FFE744F60000C5F60200BE
:105300000068C00500280CD4FFE7FDF77DFC099973
:10531000401A652804D3FFE703208DF82F00FFE132
:10532000EAE7FFE70A988068012809D1FFE744F21D
:105330007041C5F60201086840F00100086031E0E4
:105340000A98806868B9FFE744F27041C5F6020127
:10535000086820F001000860086820F00400086078
:105360001FE00A98806805280DD1FFE744F27041DC
:10537000C5F60201086840F004000860086840F0C3
:10538000010008600CE044F27041C5F602010868B3
:1053900020F001000860086820F004000860FFE7C2
:1053A000FFE7FFE7FFE70A988068F8B1FFE7FDF73E
:1053B0002BFC0990FFE744F27040C5F6020000683C
:1053C00000F002010020B0EB510F0ED1FFE7FDF716
:1053D0001BFC0999401A41F28931884204D3FFE746
:1053E00003208DF82F009BE1E5E71EE0FDF70CFCA4
:1053F0000990FFE744F27040C5F60200006800F033
:1054000002010020B0EB510F0ED0FFE7FDF7FCFBCF
:105410000999401A41F28931884204D3FFE70320F9
:105420008DF82F007CE1E5E7FFE7FFE70A98406A87
:10543000002800F07181FFE744F21040C5F6020039
:10544000006800F03800182800F0E080FFE70A98B4
:10545000406A022840F0B480FFE744F20041C5F6FC
:105460000201086820F080700860FDF7CDFB09900C
:10547000FFE744F20040C5F60200006800F000714A
:105480000020B0EB516F0CD0FFE7FDF7BDFB099991
:10549000401A032804D3FFE703208DF82F003FE1D3
:1054A000E7E7FFE744F22841C5F60201086840F249
:1054B000F33290430A9B9A6ADB6A42EA0312104372
:1054C00008600A99086BD1F834C08B6BCA6B01383D
:1054D0006FF35F204FF60061CFF6FF7101EB4C21B7
:1054E00089B208440021CFF6FF7101EB034101F4BA
:1054F000FE0108444FF07F4101EB026101F0FE41E3
:10550000084444F23041C5F602010860FFE744F266
:105510002C41C5F602010091086820F001000860E6
:1055200044F23442C5F6020210684FF6F87398430D
:105530000A9B9B6C40EAC3001060086820F00C00D6
:105540000A9A126C10430860086820F002000A9A58
:10555000526C10430860086840F4803008600868A6
:1055600040F400300860086840F480200860086853
:1055700040F00100086044F20041C5F602010868ED
:1055800040F080700860FDF73FFB0990FFE744F2B0
:105590000040C5F60200006800F000710020B0EB8A
:1055A000516F0CD1FFE7FDF72FFB0999401A032833
:1055B00004D3FFE703208DF82F00B1E0E7E724E0F4
:1055C00044F20041C5F60201086820F080700860CE
:1055D000FDF71AFB0990FFE744F20040C5F6020010
:1055E000006800F000710020B0EB516F0CD0FFE7B5
:1055F000FDF70AFB0999401A032804D3FFE70320AB
:105600008DF82F008CE0E7E7FFE784E044F22840C4
:10561000C5F602000068089044F23040C5F602006A
:10562000006807900A98406A012837D0FFE7089879
:1056300000F003000A99896A88422FD1FFE7089891
:1056400000F47C710A98C06AB0EB111F26D1FFE705
:1056500007986FF35F200A99096B013988421DD1C1
:10566000FFE7BDF81C100A98406B0138B0EB512FD2
:1056700014D1FFE7079800F4FE010A98806B013807
:10568000B0EB114F0AD1FFE7079800F0FE410A98EE
:10569000C06B0138B0EB116F04D0FFE701208DF82B
:1056A0002F003DE044F23440C5F60200006880B2AD
:1056B000C00808900A98806C0899884229D0FFE7B2
:1056C00044F22C41C5F60201086820F00100086090
:1056D000FDF79AFA0990FFE7FDF796FA0999401A43
:1056E00008B9FFE7F8E744F23441C5F6020108685B
:1056F0004FF6F87290430A9A926C40EAC200086032
:1057000044F22C41C5F60201086840F0010008602F
:10571000FFE7FFE7FFE7FFE700208DF82F00FFE737
:105720009DF82F000CB080BD80B586B00490039129
:1057300002920193049820B9FFE701208DF8170029
:1057400056E00498D0F8880040B9FFE7049900209B
:1057500081F88400049800F04FFCFFE704992420AE
:10576000C1F8880004980168086820F0010008600A
:105770000498806A20B1FFE7049801F049FAFFE736
:10578000049801F0DDFB012804D1FFE701208DF82A
:1057900017002DE004980168886840F48040886014
:1057A00004980068806820F4004003990843049935
:1057B000096888600298400500900199009840EAC5
:1057C000014000900498006800686FF31940009948
:1057D000084304990968086004980168086840F063
:1057E00001000860049801F0B7FA8DF81700FFE790
:1057F0009DF8170006B080BD80B582B00190019879
:1058000000F08AFF02B080BD81B0009001B0704707
:1058100081B0009001B0704781B0009001B0704736
:1058200085B003900291FFE7039890F83C000128AF
:1058300004D1FFE702208DF81300ABE003990120AB
:1058400081F83C00FFE7FFE70399022081F83D0063
:105850000398006840680190039800688068009091
:10586000039800680021C4F20101884209D0FFE7D3
:105870000398006840F20041C4F2010188420AD155
:10588000FFE7019820F470000190029841680198A8
:1058900008430190FFE7019820F070000190029802
:1058A00001680198084301900198039909684860CC
:1058B000039800680021C4F2010188424ED0FFE73E
:1058C00003980068B0F1804F48D0FFE70398006864
:1058D00040F20041C4F2000188423FD0FFE7039844
:1058E000006840F60001C4F20001884236D0FFE7AC
:1058F0000398006840F60041C4F2000188422DD0B0
:10590000FFE70398006840F20041C4F201018842B9
:1059100024D0FFE70398006841F60001C4F20001BB
:1059200088421BD0FFE70398006844F20001C4F2EC
:105930000101884212D0FFE7039800684EF200018F
:10594000C4F20001884209D0FFE7039800684EF2D4
:105950000041C4F2000188420ED1FFE7009820F018
:105960008000009002988168009808430090009899
:10597000039909688860FFE70399012081F83D00D9
:10598000FFE70399002081F83C00FFE700208DF835
:105990001300FFE79DF8130005B0704700000000FA
:1059A00080B582B00090009820B9FFE701208DF803
:1059B000070045E0009890F83D0040B9FFE70099E6
:1059C000002081F83C00009800F03EF8FFE70099C5
:1059D000022081F83D00009951F8040B00F0F0FF1F
:1059E0000099012081F84800FFE70099012081F823
:1059F0003E00009981F83F00009981F8400000992D
:105A000081F84100009981F84200009981F8430033
:105A1000FFE7FFE70099012081F84400009981F831
:105A20004500009981F84600009981F84700FFE79A
:105A30000099012081F83D0000208DF80700FFE764
:105A40009DF8070002B080BD80B584B00390039834
:105A5000006841F20001C4F20001884219D1FFE759
:105A6000FFE744F2E840C5F60200016841F010018A
:105A70000160006800F0100002900298FFE73620F5
:105A8000019005210022FDF7E7F90198FDF7D8F90B
:105A9000FFE704B080BD000083B00190019890F84A
:105AA0003D00012804D0FFE701208DF80B0083E0C2
:105AB0000199022081F83D0001980168C86840F012
:105AC0000100C860019800680021C4F20101884209
:105AD0004ED0FFE701980068B0F1804F48D0FFE753
